:1000000008308A0081280000FF00030E8301A5004C
:100010007F08A4000A08AB008A01A40E0408A60009
:100020002008A7002108A8002208A9002308AA0088
:10003000831383128C308400001F20280C1B3D2862
:100040008C308400001C26280C183F288D3084003A
:10005000801F2C288D1B4128260884002708A0001B
:100060002808A1002908A2002A08A3002B088A005A
:10007000250E8300FF0E7F0E09008A11BE288A110B
:10008000AF288A11BA280A108A100A118207003490
:100090001934303447345A34693474347C347F34FE
:1000A0007C34743469345A344734303419340A1087
:1000B0008A100A1182078E340434673404343E34C3
:1000C00004341A340434F6340334D4340334B234EC
:1000D00003349234033472340334553403343834E3
:1000E0000334223403340D340334F2340234D8346C
:1000F0000234C0340234A8340234913402347B34E4
:10010000023465340234503402343C34023428342E
:1001100002341634023404340234F2340134E1344B
:100120000134D1340134C1340134B2340134A33444
:100130000134953401347F3401347A34013472341B
:100140000134663401345A340134AA3402349C3404
:10015000023486340234703402346634023490013E
:1001600076088F0075088E00053090007B140C1007
:100170008A112C28FB168D138A112C28FB170C13BF
:100180008A112C28BA244E2A2100CF29D429000113
:10019000A127532A5300A129C3290001D437EE32E5
:1001A000D332EC1EBC12641F20100000C432EC30AD
:1001B000792B61363D1E2526751F20100000D43492
:1001C000ED32F2183D1E2526751F20100000C832A2
:1001D0006C36EF1000007D08840083137E188317AF
:1001E00083163F088000840A8001FD0A0319FE0A75
:1001F000831208000B088316B60083128B13831634
:1002000003178C170C140000000083120C087F39B0
:100210000319572983160313B700831203170D0818
:1002200083160313B800831203170F0883160313F2
:10023000B9003708BF008312EB20831638088312F9
:1002400003178D00831603133908831203178F00D9
:1002500083168C170C140000000083120C0D0E0D79
:100260007F390319572983160313B7008312031725
:100270000D0883160313B800831203170F088316A3
:100280000313B9003708BF008312EB208316380828
:10029000831203178D008316031339088312031783
:1002A0008F008D0A03198F0A0313FF280317831683
:1002B0000313B61F5E2983128B178316831208005F
:1002C0008316360883120C1E63299900831637089B
:1002D0008400831338188317800803198729BA010B
:1002E0000408B9003A10831B3A14000883120C1E4C
:1002F0007729990083163908840083133A188317E5
:10030000840A031D86298312850A83166C298312A9
:100310000800FB12F03097050030A100053892006C
:10032000FF308316920005308312900083168D17DC
:10033000C03083128B042F3083168500F030860086
:10034000D73087001F169F161F1383129F131F1489
:1003500003171F109F101F159F1103131F13003049
:1003600003179E0028300313A1001F08C33921047E
:100370009F009F14B201FF30FA007B168711FE0127
:10038000A130FD00E73003178D0000308F0003130C
:10039000FA2004308316B600B801A130B7008312EA
:1003A00060218A15A7280B088316B70083128B13C8
:1003B000831603178C170C140000000003180E2A74
:1003C00083120C087F3983160313B80083120317B6
:1003D0000D0883160313B900831203170F08831641
:1003E0000313BA003808BF008312EB2083163908C4
:1003F000831203178D00831603133A088312031721
:100400008F0083168C170C14000000000313B60B2A
:100410000A2A0C2A03170E2A382A031783120C0DF6
:100420000E0D7F3983160313B800831203170D08CE
:1004300083160313B900831203170F0883160313DF
:10044000BA003808BF008312EB20831639088312E4
:1004500003178D00831603133A08831203178F00C6
:100460008D0A03198F0A031083160313B60BD929BB
:10047000B71F3D2A83128B17831683120800831639
:100480003D088312A10183163C0203184C2A3C0844
:100490008312A0005F2A83168312A00108308316FE
:1004A000BE00BC0D8312A00D83163D0883122002EE
:1004B0000318A000A10D8316BE0B512A8312080059
:1004C0008316BE010408BD003E10831B3E14370E88
:1004D000F038B900B907E23EBA00323EBC00370836
:1004E0000F39BA07BA07BC07E93EBB00BB07BB0719
:1004F000360E0F39BB07BC07BB0DBC0DBC09BC0DCC
:1005000036080F39BC07B90D0730B8000A30BC07F0
:10051000BB03031C872ABB07BA03031C8B2ABA0739
:10052000B903031C8F2AB907B803031C932AB830F8
:100530008400831307303D053D138407BC3004025B
:1005400003193D1700088312A000031DB32A831668
:100550003D1FAC2A8312B32A3D1ACC2ABD19B22AF8
:100560002030B72A83128316BD153D123030831216
:10057000A0078316B7010408B6003710831B371491
:10058000831220088316BF008312EB2083163608DF
:100590008400831337188317840A3D1F9E2A831211
:1005A00008007B12861E7B160708FF3A0739A00059
:1005B000200D8316A100A10DA10DF830A105210881
:1005C000FC0083120508FF3A07398316A1002108B1
:1005D000FC07063083120C1EEB2A990004300C1E17
:1005E000EF2A9900FB1E072BFB12FE01A230FD0033
:1005F000C23003178D0000308F000313FA208316DA
:10060000B601B801A230B70083126021202BFE0191
:10061000A230FD003A308316BF008312EB204F302A
:100620008316BF008312EB204B308316BF0083126A
:10063000EB208316B601B801A230B7008312602107
:1006400083168F1D382BFE01A230FD00C5308312AA
:1006500003178D0000308F000313FA208316B601B4
:10066000B801A230B7008312602183168F114B2B83
:10067000FE01A230FD00C830831203178D00003048
:100680008F000313FA208316B601B801A230B70019
:100690008312602183160F1C672BFE01A230FD0020
:1006A0005330BF008312EB2043308316BF00831208
:1006B000EB2053308316BF008312EB208316B60164
:1006C000B801A230B70083126021792B8316FE0196
:1006D000A230FD00CB30831203178D0000308F0055
:1006E0000313FA208316B601B801A230B7008312B3
:1006F0006021FE01A230FD00CE3003178D000030D6
:100700008F000310093083160313B6008312D32120
:100710007C088316B6001830B7002030371E303002
:10072000B80036088312A000A01FA02BA009A00AC1
:1007300020088316B6002D30B800B717371483127F
:10074000210883163608BC006430BD0083123F22A6
:1007500020088316B6003030831221078316B900B3
:100760003608BC000A30BD0083123F22303020071B
:100770008316BB003030831221078316BA00380875
:100780008312A0003030831639020319CB2BB71423
:10079000B71B3715DF2B3808B9002030B8003030D0
:1007A0003A020319D72B3714B71BB714DF2B031DDD
:1007B0003714031DDF2B3908BA002030B900371970
:1007C000E62BB718EB2B3718F02BF52B3808BF00AA
:1007D0008312EB2083163908BF008312EB208316A7
:1007E0003A08BF008312EB2083163B08BF00831238
:1007F000EB203E308316BF008312EB20203083169F
:10080000BF008312EB2020308316BF008312EB2041
:1008100001308316B600B801A230B7008312602100
:100820007C082A3C0318162C0C30FC007C08243C65
:10083000031C1D2C0130F7001F2C0230F7000310A1
:100840007C0D8316B600360A83125720A300831648
:10085000360883125720F3002308F4007308123C73
:100860008316B600B7017408031C740FB7021C305E
:100870003607F5003708F6000318F60AFE01A23025
:10088000FD00D630831203178D0000308F00031057
:100890000A3083160313B6008312D321103084006C
:1008A00074088316B7007308B600831260223E30C6
:1008B0008316BF008312EB2020308316BF00831203
:1008C000EB2020308316BF008312EB20023083160A
:1008D000B600B801A230B70083126021FE01A23039
:1008E000FD00DF3003178D0000308F00031008304B
:1008F00083160313B6008312D321103084007608C8
:100900008316B7007508B600831260223E30831646
:10091000BF008312EB2020308316BF008312EB2030
:1009200020308316BF008312EB2003308316B600FD
:10093000B801A230B70083126021FB19AA2C8712DC
:100940000C3097009C019D010130831603179D0018
:10095000831203138A15BF28F03097058712080009
:100960008E30A000831622088312A100831621086E
:100970008312A200A301A108031DC82C2208A10014
:10098000A2010830A002A108031DC82CA001D02C90
:100990000310A11BCF2CA20DA10DA003C82CA113E5
:1009A0008A15D8288316210803196B2DA90025085C
:1009B00003196B2DA9070318E42C7F30A902031C2F
:1009C0006B2D03196B2DE82C8130A90703186B2DB3
:1009D00029088312A000A101A201A3018316220805
:1009E000AD00AD172308AC002408AB001830A900F7
:1009F000AA012B1C222D28088312A307031C092DF2
:100A0000A20A031D092DA10A031D092D8316AA1789
:100A10008312831627088312A207031C152DA10A2F
:100A2000031D152D8316AA17831283162608A3000B
:100A3000A31723088312A107031C212D8316AA17CD
:100A400083128316AA0D8312A10CA20CA30C831689
:100A5000AD0CAC0CAB0C0310A90BF82C01308312BD
:100A6000A007031C352D83166B2DA11B412D83166A
:100A7000AD0D8312A30DA20DA10DA00B412D831668
:100A80006B2D8316AD1F5D2D8312A30A03194A2D0A
:100A900083165D2DA20A03194F2D83165D2DA10A21
:100AA0000319542D83165D2DA10CA20CA30CA00AD2
:100AB000031D5C2D83166B2D83162208AA002608C1
:100AC000AA06AA1F672D8312A117702D8316831201
:100AD000A113702D83168312A001A101A201A3010D
:100AE0008A15F5288030831C782D8316AA06831278
:100AF0008316AF01B0012608AE002A08AE0625080D
:100B000003197D2EAD008312A00083162908031956
:100B1000882EAD020319172E031CCF2D2A08B3000F
:100B2000B3172B08B2002C08B100B0010310B30CAE
:100B3000B20CB10CB00CAD0B952DAE1FA22D2F1425
:100B4000A42E2F102D102F16A83084008313B92E39
:100B50002F12AE1BB72D2D1CC42DB30CB20CB10C33
:100B6000B00C8312A00A03199E2E8316C42DB31B4A
:100B7000C72D0310B00DB10DB20DB30D8312A0033C
:100B800003199E2E8316B72D2F17392E2F132608E3
:100B9000AE00A61FCD2DB317922EB313922E2908A7
:100BA000AD008312A00083162508AD022608B3000D
:100BB000B3172708B2002808B100B0010310B30C26
:100BC000B20CB10CB00CAD0BDD2DAE1FEA2DAF1485
:100BD000A42EAF102D10AF16AC3084008313B92EA5
:100BE000AF12AE1BFF2D2D1C0C2EB30CB20CB10C92
:100BF000B00C8312A00A03199E2E83160C2EB31B71
:100C00000F2E0310B00DB10DB20DB30D8312A00362
:100C100003199E2E8316FF2DAF17392EAF132A0806
:100C2000AE00AA1F152EB317922EB313922E2A08C8
:100C3000B300B3172B08B2002C08B100AE1F242E4E
:100C4000B3132F15A42E2F11B0012D10A83084003E
:100C50008313B92EAE1B512E2608AE002D1C392E43
:100C6000B30CB20CB10CB00C8312A00A03199E2E67
:100C70008316B01F4C2EB10A031D4C2EB20A031D61
:100C80004C2EB30A031D4C2EB30CB20CB10C8312C4
:100C9000A00A03199E2E83162F1BC62DAF1B0E2EE6
:100CA000772E8030B306B31F592EA42E2A08AE002B
:100CB000682E2608AE00B308031D682EB208031D77
:100CC000682EB108031D682E8312A0018316922E90
:100CD000B31B772E0310B00DB10DB20DB30D8312FF
:100CE000A00B732E752E8316682E9E2E8316AE1FB4
:100CF0007B2EB317922EB313922E29088312A000D5
:100D000083162A08B3002B08B2002C08B100922EDB
:100D100025088312A00083162608B3002708B20016
:100D20002808B10033088312A10083163208831209
:100D3000A200831631088312A300D82EA001A101BE
:100D4000A201A301D82E8316B001B109B209B309DB
:100D5000B009B00A031DB22EB10A031DB22EB20AA9
:100D60000319B30A2F18A12DAF18E92D2F19232E1F
:100D7000562E0008B107031CC32EB20A031DC32E52
:100D8000B30A03192D1484030008B207031CCB2EE9
:100D9000B30A03192D1484030008801F803AB30797
:100DA00003182D142F1AA82DAF1AF02D2A2E8312F6
:100DB0008A151729831621080319B92FAD002508B4
:100DC0000319B92FAD02031CEA2E7F30AD070318BB
:100DD000B92FF02E8130AD02031CB92F0319B92FA2
:100DE0002D088312A000A101A201A3018316AC016A
:100DF0002208AB00AB172308AA002408A900193069
:100E0000AD002808A9020318152F0130AA02031803
:100E1000152FAB020318152FAC020318152FAC0ABF
:100E2000AB0AAA0A2808A907492F2708AA0203180B
:100E3000302F0130AB020318302FAC020318302FD3
:100E4000AC0AAB0A2708AA072808A907031C492FE0
:100E5000AA0A031D492FAB0A031D492FAC0A492FCB
:100E600026088038AB020318462F0130AC02031865
:100E7000462FAC0A26088038AB072708AA07031CB0
:100E8000242FAB0A031D242FAC0A242F8312231412
:100E90008316AD0B4C2F592F0310A90DAA0DAB0DC6
:100EA000AC0D03108312A30DA20DA10D8316AE0D80
:100EB000012F2E1C632F03108312A10CA20CA30C74
:100EC0008316AE0C692F8312A00B682F8316B92FDF
:100ED0008316AE1B922F0310A90DAA0DAB0DAC0DFE
:100EE0002808A90203187E2F0130AA0203187E2FBA
:100EF000AB0203187E2FAC02031CAB2F2708AA02FB
:100F00000318892F0130AB020318892FAC02031C90
:100F1000AB2F26088038AB020318922F0130AC02A9
:100F2000031CAB2F8312A30A0319982F8316AB2F30
:100F3000A20A03199D2F8316AB2FA10A0319A22F12
:100F40008316AB2FA00A031DA72F8316B92FA10C60
:100F5000A20CA30C83162208AD002608AD06AD1F17
:100F6000B52F8312A117BE2F83168312A113BE2F94
:100F700083168312A001A101A201A3018A153329BE
:100F80008E30A000831621088312A0028316220847
:100F90008312A200831623088312A100A217A008BF
:100FA0000319DD2F0310A208031DD92FA10803196F
:100FB000DD2FA20CA10CA00BD22F8316A21FE72FAE
:100FC0008312A109A209A10A0319A20A8316831296
:040FD0008A1546290F
:101000009F1800281E088316A1007A082102A2005A
:101010002208033C03187D28A20122081F3C031C60
:101020007B2822081F39A5000F39A600251E23287A
:1010300026088A11831243208A15A1007F3CA10053
:101040002C282C28831626088A11831243208A15FF
:10105000A1007F302107A1008316A6018312210879
:101060008316A5002608A8002508A700AA017A086B
:10107000A9001030AB008312A001A3018316A80CB5
:10108000A70C031C4D2829088312A0070318A30AE4
:1010900083162A088312A30783168312A30CA00CBD
:1010A000A20CA10C8316AB0B3F28831222088316D7
:1010B000A600831221088316A50026088312A30127
:1010C000A200220D8316A3008312230D8316A40011
:1010D000A30DA40DFC30A3050310220D8312333E93
:1010E00084008313840A8316240880008403230861
:1010F0008000A20A0D282108FA0083129F148A1585
:101100009D29840183131F30830583169B11403072
:101110009900A63098009030831298007B10FE0151
:10112000FD0103171F109F101F119F1103131F13A1
:10113000003003179E0099019A0183169E018312C5
:101140009B0103138D12AC01AD018A1189298A1507
:101150008316A001FB108312071EFB14FB11851DD3
:10116000FB153208FC3E03186029043EA029FB1C35
:10117000BB280130B20060297B118A11D12A8A155F
:1011800083160C14831287150230B2006029FB18F5
:101190004D297B11871F7B157B19D1288A11AC241F
:1011A0008A158316A2017C08A1008A118312B02C33
:1011B0008A15CD308316A400CC30A3002830A200BD
:1011C0008330A100831223088316A800831222080B
:1011D0008316A700831221088316A6008312200815
:1011E0008316A5008A118312D22C8A152008831633
:1011F000A100831221088316A200831222088316FD
:10120000A300831223088316A40083102408A800D7
:101210002308A7002208A6002108A500AC01AB0105
:101220004830AA008730A9008A118312722D8A15CE
:101230008316A4017C30A3001230A2009130A100DB
:10124000831223088316A800831222088316A7009E
:10125000831221088316A600831220088316A50096
:101260008A118312DA2E8A1523088316A4008312AA
:1012700022088316A300831221088316A20083127A
:1012800020088316A1008A118312C02F8A15220814
:10129000F9002108F8000330B2006029F808031DA6
:1012A0005C29F908031D5C2987118A11AC248A1571
:1012B00083160C108312B201FB1C60290130B200AE
:1012C0007B1C9D297B107B1D6C29770883162002CF
:1012D0001F39A000712983127708831620071F3950
:1012E000A000780879040319792978080319F9030B
:1012F000F8030310200D8312333E84008313840A05
:1013000000088316A20084030008A10022088312AB
:10131000A200831621088312A100A20CA10CA20C2A
:10132000A10CA20C21089500A20C220C3039A000BF
:101330001708CF392004970000288316AA286300D5
:101340000A148A100A118207B728BC28C7284E2918
:02400E00C23FAF
:00000001FF
;PIC16F690
;CRC=6205  CREATED="28-Apr-25 10:00"
