:1000000000308A00FC280000FF00030E8301A500D9
:100010007F08A4000A08AB008A01A40E0408A60009
:100020002008A7002108A8002208A9002308AA0088
:10003000831383128C308400001C20280C1839286C
:100040008B1E24280B193B288B1D28280B183D28B4
:10005000260884002708A0002808A1002908A2007B
:100060002A08A3002B088A00250E8300FF0E7F0EAE
:1000700009008A11B0288A11AB288A11D4280A10E5
:100080008A100A11820700341934303447345A3444
:10009000693474347C347F347C34743469345A3435
:1000A0004734303419340A108A100A1182078E340A
:1000B0000434673404343E3404341A340434F634DB
:1000C0000334D4340334B2340334923403347234FA
:1000D00003345534033438340334223403340D34B8
:1000E0000334F2340234D8340234C0340234A83435
:1000F0000234913402347B34023465340234503497
:1001000002343C34023428340234163402340434C9
:100110000234F2340134E1340134D1340134C134D5
:100120000134B2340134A3340134953401347F34C2
:1001300001347A34013472340134663401345A346F
:100140000134553401344E340134433401343834ED
:10015000013433340134B00AAF150B118A11282849
:100160000508AE002E08543C0318B8280C30AE0029
:1001700003102E0DBD003D0A5320A3003D0853205F
:10018000B9002308BA0039080D3CBB00BC013A088D
:10019000031C3A0FBC023C088F003B088E00B00ADB
:1001A000AF150C108A1128282F10061A2F14AF1023
:1001B000861AAF142F150B108A112828F0309705D6
:1001C0000030A10005389200FF30831692002530E0
:1001D000831290008B153030031796048316031397
:1001E0000C14C03083128B043F3083168500F0302E
:1001F000860083128A111829840183131F30830516
:10020000B001AF1103171F109F101F119F1103138F
:100210001F13003003179E0099019A0183169E0157
:1002200083129B0103138D122F10AF102F15DE28A0
:10023000B1012F1D33292F1C2D29831687128312FC
:1002400087120C3097009C019D0101308316031723
:100250009D0003130C1431298312F0309705831687
:100260000C1083122F11AF1D7429AF1C3C290130D3
:1002700031021F39B1004029013031071F39B10067
:1002800031081F39B4000F39B500341E4E29350826
:100290003F20A1007F3CA1005429542935083F206C
:1002A000A1007F302107A1003F30B5000130B4002C
:1002B000B7012108B6001030B800A001A301B50CA9
:1002C000B40C031C69293608A0070318A30A3708D1
:1002D000A307A30CA00CA20CA10CB80B5F2921084A
:0C02E000B20032089500AF11192963002C
:02400E00E13F90
:00000001FF
;PIC16F690
;CRC=5C9F  CREATED="25-Mar-23 09:22"
