:1000000000308A00DB280000FF00030E8301A500FA
:100010007F08A4000A08AB008A01A40E0408A60009
:100020002008A7002108A8002208A9002308AA0088
:10003000831383128C308400001C20280C18352870
:100040008B1D24280B183728260884002708A000B9
:100050002808A1002908A2002A08A3002B088A006A
:10006000250E8300FF0E7F0E09008A11A5288A1134
:10007000B1280A108A100A1182070034193430346A
:1000800047345A34693474347C347F347C34743467
:1000900069345A344734303419340A108A100A113A
:1000A00082078E340434673404343E3404341A3402
:1000B0000434F6340334D4340334B2340334923485
:1000C0000334723403345534033438340334223463
:1000D00003340D340334F2340234D8340234C034DF
:1000E0000234A8340234913402347B34023465344F
:1000F0000234503402343C3402342834023416348E
:10010000023404340234F2340134E1340134D134A1
:100110000134C1340134B2340134A3340134953490
:1001200001347F3401347A3401347234013466345A
:1001300001345A340134AA3402349C3402348634F3
:10014000023470340234663402349001B30AB215BA
:100150002F088F002E088E00053090000C108A1199
:1001600024283210061A3214B210861AB21432152C
:100170000B108A112428F03097050030A1000538B3
:100180009200FF30831692000530831290008B1589
:10019000303003179604831603130C14C0308312F7
:1001A0008B042F3083168500F030860007308700DF
:1001B00083128A11F728840183131F308305B3014A
:1001C000B21103171F109F101F119F1103131F134C
:1001D000003003179E0099019A0183169E01831235
:1001E0009B0103138D123210B2103215BB28B401DB
:1001F000321D4E2907080739A000200DB100B10DAE
:10020000B10DF830B10505080739B1070C30B10060
:1002100031082A3C03180E290C30B1003108243C67
:10022000031C15290130B00017290230B00003105B
:10023000310DB500350A4D20A30035084D20AC0026
:100240002308AD002C08123CB500B6012D08031C94
:100250002D0FB60218303507AE003608AF00031870
:10026000AF0A321C4329871783160C148312871296
:100270000C3097009C019D010130831603179D00EF
:100280004B2983120313F030970583160C10831249
:10029000871383160317831203133211B21D8F299C
:1002A000B21C5729300834021F39B4005B293008CA
:1002B00034071F39B40034081F39B7000F39B800AC
:1002C000371E692938083920A1007F3CA1006F2919
:1002D0006F2938083920A1007F302107A1003F3065
:1002E000B8000130B700BA012108B9001030BB00D6
:1002F000A001A301B80CB70C031C84293908A0077E
:100300000318A30A3A08A307A30CA00CA20CA10C83
:10031000BB0B7A292108B50035089500B211F828E1
:02032000630078
:02400E00E23F8F
:00000001FF
;PIC16F690
;CRC=F005  CREATED="06-Mar-25 09:32"
