:1000000005308A00882D0000FF00030E8301A50043
:100010007F08A4000A08AB008A01A40E0408A60009
:100020002008A7002108A8002208A9002308AA0088
:10003000831383128C308400001F20280C1B3D2862
:100040008C308400001C26280C183F288D3084003A
:10005000801F2C288D1B4128260884002708A0001B
:100060002808A1002908A2002A08A3002B088A005A
:10007000250E8300FF0E7F0E09008A1119298A11AF
:100080000A298A1115290A108A100A1182070034D8
:100090001934303447345A34693474347C347F34FE
:1000A0007C34743469345A344734303419340A1087
:1000B0008A100A1182078E340434673404343E34C3
:1000C00004341A340434F6340334D4340334B234EC
:1000D00003349234033472340334553403343834E3
:1000E0000334223403340D340334F2340234D8346C
:1000F0000234C0340234A8340234913402347B34E4
:10010000023465340234503402343C34023428342E
:1001100002341634023404340234F2340134E1344B
:100120000134D1340134C1340134B2340134A33444
:100130000134953401347F3401347A34013472341B
:100140000134663401345A340134AA3402349C3404
:1001500002348634023470340234663402340A10B5
:100160008A100A11B63E03188A0A82004534013407
:100170004F34013459340134643401346F34013460
:100180007B3401348834013496340134A43401348E
:10019000B2340134C2340134D2340134E234013493
:1001A000F434013405340234183402342B3402346C
:1001B0003F34023453340234683402347E3402341F
:1001C00094340234AB340234C2340234DB340234AB
:1001D000F33402340D34033427340334423403340B
:1001E0005D3403347934033495340334B334033445
:1001F000D0340334EF3403340E3404342E34043456
:100200002734023438340234493402345A34023444
:100210006B340234900176088F0075088E0005302B
:1002200090007B140C108A112C28FB168D138A1158
:100230002C28FB170C138A112C28BA244E2A2100D3
:10024000CF29D4290001A127532A5300A129C3296A
:100250000001D437EE32D332EC1EBC12641F2010E2
:100260000000C432EC30792B61363D1E2526751F07
:1002700020100000D434ED32F2183D1E2526751FE3
:1002800020100000C8326C36EF1000007D0884009A
:1002900083137E18831783163F088000840A800129
:1002A000FD0A0319FE0A831208000B088316B60024
:1002B00083128B13831603178C170C140000000095
:1002C00083120C087F390319B22983160313B70070
:1002D000831203170D0883160313B8008312031744
:1002E0000F0883160313B9003708BF008312462195
:1002F00083163808831203178D00831603133908F9
:10030000831203178F0083168C170C140000000053
:1003100083120C0D0E0D7F390319B22983160313B6
:10032000B700831203170D0883160313B800831256
:1003300003170F0883160313B9003708BF00831291
:10034000462183163808831203178D008316031382
:100350003908831203178F008D0A03198F0A0313BC
:100360005A29031783160313B61FB92983128B1753
:100370008316831208008316360883120C1EBE29CA
:100380009900831637088400831338188317800870
:100390000319E229BA010408B9003A10831B3A1480
:1003A000000883120C1ED229990083163908840094
:1003B00083133A188317840A031DE1298312850ADF
:1003C0008316C72983120800FB12F030970500300E
:1003D000A10005389200FF30831692000530831289
:1003E000900083168D17C03083128B042F30831634
:1003F0008500F0308600D73087001F169F161F1328
:1004000083129F131F1403171F109F101F159F1196
:1004100003131F13003003179E0028300313A1009D
:100420001F08C33921049F009F14B201FF30FA0056
:100430007B168711FE01A130FD00423003178D00AD
:1004400001308F000313552104308316B600B80124
:10045000A130B7008312BB218A11AD2D0B08831682
:10046000B70083128B13831603178C170C1400002C
:1004700000000318692A83120C087F3983160313BE
:10048000B800831203170D0883160313B9008312F3
:1004900003170F0883160313BA003808BF0083122E
:1004A000462183163908831203178D008316031320
:1004B0003A08831203178F0083168C170C14000060
:1004C00000000313B60B652A672A0317692A932ACB
:1004D000031783120C0D0E0D7F3983160313B8001A
:1004E000831203170D0883160313B9008312031731
:1004F0000F0883160313BA003808BF008312462181
:1005000083163908831203178D00831603133A08E4
:10051000831203178F008D0A03198F0A03108316A5
:100520000313B60B342AB71F982A83128B1783162E
:100530008312080083163D088312A10183163C0232
:100540000318A72A3C088312A000BA2A8316831234
:10055000A00108308316BE00BC0D8312A00D8316C7
:100560003D08831220020318A000A10D8316BE0BC4
:10057000AC2A831208008316BE010408BD003E1099
:10058000831B3E14370EF038B900B907E23EBA00BB
:10059000323EBC0037080F39BA07BA07BC07E93E3C
:1005A000BB00BB07BB07360E0F39BB07BC07BB0D33
:1005B000BC0DBC09BC0D36080F39BC07B90D07309E
:1005C000B8000A30BC07BB03031CE22ABB07BA030E
:1005D000031CE62ABA07B903031CEA2AB907B803C1
:1005E000031CEE2AB8308400831307303D053D1309
:1005F0008407BC30040203193D1700088312A000D1
:10060000031D0E2B83163D1F072B83120E2B3D1A45
:10061000272BBD190D2B2030122B83128316BD15ED
:100620003D1230308312A0078316B7010408B600CC
:100630003710831B3714831220088316BF008312E0
:100640004621831636088400831337188317840ADB
:100650003D1FF92A831208007B12861E7B160708AD
:10066000FF3A0739A000200D8316A100A10DA10DAE
:10067000F830A1052108FC0083120508FF3A07396C
:100680008316A1002108FC07063083120C1E462B9E
:10069000990004300C1E4A2B9900FB1E622BFB12A2
:1006A000FE01A230FD001D3003178D0001308F00C8
:1006B000031355218316B601B801A230B700831287
:1006C000BB217B2BFE01A230FD003A308316BF0018
:1006D000831246214F308316BF00831246214B30D0
:1006E0008316BF00831246218316B601B801A230DB
:1006F000B7008312BB2183168F1D932BFE01A230FE
:10070000FD002030831203178D0001308F0003138A
:1007100055218316B601B801A230B7008312BB2160
:1007200083168F11A62BFE01A230FD002330831209
:1007300003178D0001308F00031355218316B60176
:10074000B801A230B7008312BB2183160F1CC22B45
:10075000FE01A230FD005330BF008312462143301A
:100760008316BF008312462153308316BF008312C5
:1007700046218316B601B801A230B7008312BB210F
:10078000D42B8316FE01A230FD00263083120317FE
:100790008D0001308F00031355218316B601B80177
:1007A000A230B7008312BB21FE01A230FD00293028
:1007B00003178D0001308F000310093083160313D7
:1007C000B60083122E227C088316B6001830B700BC
:1007D0002030371E3030B80036088312A000A01F2A
:1007E000FB2BA009A00A20088316B6002D30B80004
:1007F000B71737148312210883163608BC006430FB
:10080000BD0083129A2220088316B600303083126E
:1008100021078316B9003608BC000A30BD008312D8
:100820009A22303020078316BB0030308312210714
:100830008316BA0038088312A000303083163902BC
:100840000319262CB714B71B37153A2C3808B900F2
:100850002030B80030303A020319322C3714B71B5D
:10086000B7143A2C031D3714031D3A2C3908BA006B
:100870002030B9003719412CB718462C37184B2CAB
:10088000502C3808BF008312462183163908BF0058
:100890008312462183163A08BF008312462183162D
:1008A0003B08BF00831246213E308316BF008312EF
:1008B000462120308316BF00831246212030831644
:1008C000BF008312462101308316B600B801A23062
:1008D000B7008312BB217C082A3C0318712C0C3012
:1008E000FC007C08243C031C782C0130F7007A2C97
:1008F0000230F70003107C0D8316B600360A83120F
:100900005720A3008316360883125720F3002308CC
:10091000F4007308123C8316B600B7017408031C78
:10092000740FB7021C303607F5003708F6000318BD
:10093000F60AFE01A230FD003130831203178D004C
:1009400001308F0003100A3083160313B6008312A0
:100950002E221030840074088316B7007308B60086
:100960008312BB223E308316BF0083124621203003
:100970008316BF008312462120308316BF008312E6
:10098000462102308316B600B801A230B7008312A8
:10099000BB21FE01A230FD003A3003178D0001306B
:1009A0008F000310083083160313B60083122E2223
:1009B0001030840076088316B7007508B6008312DD
:1009C000BB223E308316BF0083124621203083169F
:1009D000BF008312462120308316BF0083124621B8
:1009E00003308316B600B801A230B7008312BB21D2
:1009F000FB19052D87120C3097009C019D010130D9
:100A0000831603179D00831203138A11C32DF03040
:100A10009705871208009F180B2D1E088316A1004A
:100A20007A082102A2002208033C0318842DA201A7
:100A300022081F3C031C822D22081F39A5000F39F4
:100A4000A600251E2C2D260883124320A1007F3CE2
:100A5000A100332D332D8316260883124320A100D5
:100A60007F302107A1008316A60183122108831677
:100A7000A5002608A8002508A700AA017A08A90051
:100A80001030AB008312A001A3018316A80CA70CA1
:100A9000031C542D29088312A0070318A30A8316E8
:100AA0002A088312A30783168312A30CA00CA20C9E
:100AB000A10C8316AB0B462D831222088316A600C9
:100AC000831221088316A50026088312A301A20021
:100AD000220D8316A3008312230D8316A400A30DF9
:100AE000A40DFC30A3050310220D8312333E8400B5
:100AF0008313840A8316240880008403230880005B
:100B0000A20A182D2108FA0083129F148A11302E90
:100B1000840183131F30830583169B114030990095
:100B2000A63098009030831298007B10FE01FD01E2
:100B300003171F109F101F119F1103131F13003065
:100B400003179E0099019A0183169E0183129B014F
:100B500003138D12AC01AD01E4298316A001FB1033
:100B60008312071EFB14FB11851DFB153208FC3E8A
:100B70000318F32D043E332EFB1CC02D0130B200B0
:100B8000F32D7B112C2B83160C1483128715023046
:100B9000B200F32DFB18E22D7B11871F7B157B1D07
:100BA000072503107C0D8316A100210A8312AF20B4
:100BB000A300831621088312AF20F8002308F90050
:100BC0000330B200F32DF808031DEF2DF908031DC3
:100BD000EF2D8711072583160C108312B201FB1C21
:100BE000F32D0130B2007B1C302E7B107B1DFF2DBE
:100BF0007708831620021F39A000042E831277087D
:100C0000831620071F39A0007808790403190C2ED9
:100C100078080319F903F8030310200D8312333EFB
:100C200084008313840A00088316A200840300084A
:100C3000A10022088312A200831621088312A100BA
:100C4000A20CA10CA20CA10CA20C21089500A20CD4
:100C5000220C3039A0001708CF39200497000B2D43
:100C60008316AF2D63000A108A140A158207BC2D63
:060C7000C12DCA2DE32D89
:02400E00C23FAF
:00000001FF
;PIC16F690
;CRC=3C38  CREATED="28-Apr-25 20:46"
