:1000000008308A007C280000FF00030E8301A50051
:100010007F08A4000A08AB008A01A40E0408A60009
:100020002008A7002108A8002208A9002308AA0088
:10003000831383128C308400001F20280C1B3D2862
:100040008C308400001C26280C183F288D3084003A
:10005000801F2C288D1B4128260884002708A0001B
:100060002808A1002908A2002A08A3002B088A005A
:10007000250E8300FF0E7F0E09008A11BE288A110B
:10008000AF288A11BA280A108A100A118207003490
:100090001934303447345A34693474347C347F34FE
:1000A0007C34743469345A344734303419340A1087
:1000B0008A100A1182078E340434673404343E34C3
:1000C00004341A340434F6340334D4340334B234EC
:1000D00003349234033472340334553403343834E3
:1000E0000334223403340D340334F2340234D8346C
:1000F0000234C0340234A8340234913402347B34E4
:10010000023465340234503402343C34023428342E
:1001100002341634023404340234F2340134E1344B
:100120000134D1340134C1340134B2340134A33444
:100130000134953401347F3401347A34013472341B
:100140000134663401345A340134AA3402349C3404
:10015000023486340234703402346634023490013E
:1001600070088F006F088E000530900075140C1019
:100170008A112C2875168D138A112C2875170C13CB
:100180008A112C28BA244E2A2100CF29D429000113
:10019000A127532A5300A129C3290001D437EE32E5
:1001A000D332EC1EBC12641F20100000C432EC30AD
:1001B000792B61363D1E2526751F20100000D43492
:1001C000ED32F2183D1E2526751F20100000C832A2
:1001D0006C36EF10000077088400831378188317BB
:1001E00083163D088000840A8001F70A0319F80A83
:1001F000831208000B088316B40083128B13831636
:1002000003178C170C140000000083120C087F39B0
:100210000319572983160313B500831203170D081A
:1002200083160313B600831203170F0883160313F4
:10023000B7003508BD008312EB2083163608831201
:1002400003178D00831603133708831203178F00DB
:1002500083168C170C140000000083120C0D0E0D79
:100260007F390319572983160313B5008312031727
:100270000D0883160313B600831203170F088316A5
:100280000313B7003508BD008312EB208316360830
:10029000831203178D008316031337088312031785
:1002A0008F008D0A03198F0A0313FF280317831683
:1002B0000313B41F5E2983128B1783168312080061
:1002C0008316340883120C1E63299900831635089F
:1002D0008400831336188317800803198729B8010F
:1002E0000408B7003810831B3814000883120C1E52
:1002F00077299900831637088400831338188317E9
:10030000840A031D86298312850A83166C298312A9
:1003100008007512F03097050030A10005389200F2
:10032000FF308316920005308312900083168D17DC
:10033000C03083128B042F3083168500F030860086
:10034000D73087001F169F161F1383129F131F1489
:1003500003171F109F101F159F1103131F13003049
:1003600003179E0028300313A1001F08C33921047E
:100370009F009F14AC01FF30F4008711F801A030FA
:10038000F700E73003178D0000308F000313FA20C9
:1003900004308316B400B601A030B500831260218A
:1003A0008A15A0280B088316B50083128B138316B9
:1003B00003178C170C140000000003180D2A831279
:1003C0000C087F3983160313B600831203170D0838
:1003D00083160313B700831203170F088316031342
:1003E000B8003608BD008312EB208316370883124D
:1003F00003178D00831603133808831203178F0029
:1004000083168C170C14000000000313B40B092A88
:100410000B2A03170D2A372A031783120C0D0E0D12
:100420007F3983160313B600831203170D08831652
:100430000313B700831203170F0883160313B800C2
:100440003608BD008312EB2083163708831203178A
:100450008D00831603133808831203178F008D0A4B
:1004600003198F0A031083160313B40BD829B51F81
:100470003C2A83128B1783168312080083163B08CD
:100480008312A10183163A0203184B2A3A088312F9
:10049000A0005E2A83168312A00108308316BC00D8
:1004A000BA0D8312A00D83163B0883122002031895
:1004B000A000A10D8316BC0B502A831208008316DE
:1004C000BC010408BB003C10831B3C14350EF03803
:1004D000B700B707E23EB800323EBA0035080F3920
:1004E000B807B807BA07E93EB900B907B907340E2B
:1004F0000F39B907BA07B90DBA0DBA09BA0D3408E0
:100500000F39BA07B70D0730B6000A30BA07B9037A
:10051000031C862AB907B803031C8A2AB807B70345
:10052000031C8E2AB707B603031C922AB630840038
:10053000831307303B053B138407BA3004020319C9
:100540003B1700088312A000031DB22A83163B1F2D
:10055000AB2A8312B22A3B1ACB2ABB19B12A20300C
:10056000B62A83128316BB153B1230308312A007C4
:100570008316B5010408B4003510831B35148312AB
:1005800020088316BD008312EB20831634088400F4
:10059000831335188317840A3B1F9D2A8312080092
:1005A0000708FF3A0739A000200DFA00FA0DFA0DEE
:1005B000F830FA057A08F6000508FF3A0739FA001C
:1005C0007A08F60706300C1EE32A990004300C1E48
:1005D000E72A9900751EFF2A7512F801A030F7006E
:1005E000C23003178D0000308F000313FA208316EA
:1005F000B401B601A030B50083126021182BF801B8
:10060000A030F7003A308316BD008312EB204F3044
:100610008316BD008312EB204B308316BD0083127E
:10062000EB208316B401B601A030B500831260211F
:1006300083168F1D302BF801A030F700C5308312D0
:1006400003178D0000308F000313FA208316B401C6
:10065000B601A030B5008312602183168F11432BA1
:10066000F801A030F700C830831203178D00003066
:100670008F000313FA208316B401B601A030B50031
:100680008312602183160F1C5F2BF801A030F70046
:100690005330BD008312EB2043308316BD0083121C
:1006A000EB2053308316BD008312EB208316B40178
:1006B000B601A030B50083126021712B8316F801BA
:1006C000A030F700CB30831203178D0000308F006D
:1006D0000313FA208316B401B601A030B5008312CB
:1006E0006021F801A030F700CE3003178D000030F4
:1006F0008F000310093083160313B4008312D22134
:1007000076088316B4001830B5002030351E30301E
:10071000B60034088312A000A01F982BA009A00ADD
:1007200020088316B4002D30B600B5173514831297
:10073000210883163408BA006430BB0083123E22BD
:1007400020088316B4003030831221078316B700C7
:100750003408BA000A30BB0083123E223030200732
:100760008316B9003030831221078316B80036088B
:100770008312A0003030831637020319C32BB5143F
:10078000B51B3515D72B3608B7002030B6003030F2
:1007900038020319CF2B3514B51BB514D72B031D05
:1007A0003514031DD72B3708B8002030B700351992
:1007B000DE2BB518E32B3518E82BED2B3608BD00E2
:1007C0008312EB2083163708BD008312EB208316BB
:1007D0003808BD008312EB2083163908BD00831250
:1007E000EB203E308316BD008312EB2020308316B1
:1007F000BD008312EB2020308316BD008312EB2056
:1008000001308316B400B601A030B5008312602118
:1008100076082A3C03180E2C0C30F6007608243C8F
:10082000031C152C0130F100172C0230F1000310CD
:10083000760DFB007B0A5720A3007B085720ED00B4
:100840002308EE006D08123CFB00FC016E08031C3F
:100850006E0FFC021C307B07EF007C08F0000318D1
:10086000F00AF801A030F700D63003178D000030F1
:100870008F0003100A3083160313B4008312D221B1
:10088000103084006E088316B50083126D0883163D
:10089000B40083125F223E308316BD008312EB202A
:1008A00020308316BD008312EB2020308316BD005C
:1008B0008312EB2002308316B400B601A030B500DD
:1008C00083126021F801A030F700DF3003178D009C
:1008D00000308F000310083083160313B400831216
:1008E000D2211030840070088316B50083126F087F
:1008F0008316B40083125F223E308316BD0083123C
:10090000EB2020308316BD008312EB2020308316AD
:10091000BD008312EB2003308316B400B601A03073
:10092000B50083126021F519A02C87120C309700B6
:100930009C019D010130831603179D008312031350
:100940008A15B528F0309705871208008E30A00070
:100950007B08A1007A08A200A301A108031DBA2CFC
:100960002208A100A2010830A002A108031DBA2C90
:10097000A001C22C0310A11BC12CA20DA10DA0032C
:10098000BA2CA1138A15CF287A0803195F2D831674
:10099000A4002008031DCE2C83125F2DA40703188A
:1009A000DC2C7F30A4020318D72C83125F2D031D8B
:1009B000DB2C83125F2DE22C8130A407031CE22C78
:1009C00083125F2D24088312A000A101A201A301BC
:1009D0007B088316A800A8177C08A7007D08A6003E
:1009E0001830A400A501261C1C2D23088312A30780
:1009F000031C032DA20A031D032DA10A031D032DB1
:100A00008316A5178312831622088312A207031CDC
:100A10000F2DA10A031D0F2D8316A5178312831610
:100A20002108FC00FC177C088312A107031C1B2D66
:100A30008316A51783128316A50D8312A10CA20C91
:100A4000A30C8316A80CA70CA60C0310A40BF22C65
:100A500001308312A00703185F2DA11B382D8316C8
:100A6000A80D8312A30DA20DA10DA00303195F2DE4
:100A70008316A81F522D8312A30A0319412D831632
:100A8000522DA20A0319462D8316522DA10A0319CD
:100A90004B2D8316522DA10CA20CA30CA00A0319F6
:100AA0005F2D83167B08A5002108A506A51F5C2DD8
:100AB0008312A117632D83168312A113632DA00146
:100AC000A101A201A3018A15EA288030831C6B2DA5
:100AD0008316A50683128316AA01AB012108A9007B
:100AE0002508A90620080319702EA8008312A0006B
:100AF0008316240803197B2EA80203190A2E031C4F
:100B0000C22D2508AE00AE172608AD002708AC00A0
:100B1000AB010310AE0CAD0CAC0CAB0CA80B882DCC
:100B2000A91F952D2A14972E2A1028102A16A330B3
:100B300084008313AC2E2A12A91BAA2D281CB72DC2
:100B4000AE0CAD0CAC0CAB0C8312A00A0319912EA9
:100B50008316B72DAE1BBA2D0310AB0DAC0DAD0D2A
:100B6000AE0D8312A0030319912E8316AA2D2A1706
:100B70002C2E2A132108A900A11FC02DAE17852EE7
:100B8000AE13852E2408A8008312A0008316200827
:100B9000A8022108AE00AE172208AD002308AC0061
:100BA000AB010310AE0CAD0CAC0CAB0CA80BD02DF4
:100BB000A91FDD2DAA14972EAA102810AA16A73057
:100BC00084008313AC2EAA12A91BF22D281CFF2D22
:100BD000AE0CAD0CAC0CAB0C8312A00A0319912E19
:100BE0008316FF2DAE1B022E0310AB0DAC0DAD0D09
:100BF000AE0D8312A0030319912E8316F22DAA17AE
:100C00002C2EAA132508A900A51F082EAE17852E85
:100C1000AE13852E2508AE00AE172608AD002708B6
:100C2000AC00A91F172EAE132A15972E2A11AB015F
:100C30002810A33084008313AC2EA91B442E210856
:100C4000A900281C2C2EAE0CAD0CAC0CAB0C8312E6
:100C5000A00A0319912E8316AB1F3F2EAC0A031D69
:100C60003F2EAD0A031D3F2EAE0A031D3F2EAE0CD4
:100C7000AD0CAC0C8312A00A0319912E83162A1B0B
:100C8000B92DAA1B012E6A2E8030AE06AE1F4C2E47
:100C9000972E2508A9005B2E2108A900AE08031D88
:100CA0005B2EAD08031D5B2EAC08031D5B2E83126B
:100CB000A0018316852EAE1B6A2E0310AB0DAC0D62
:100CC000AD0DAE0D8312A00B662E682E83165B2E23
:100CD000912E8316A91F6E2EAE17852EAE13852E6C
:100CE00024088312A00083162508AE002608AD0054
:100CF0002708AC00852E20088312A0008316210847
:100D0000AE002208AD002308AC002E088312A1001B
:100D100083162D088312A20083162C088312A300C9
:100D2000CB2EA001A101A201A301CB2E8316AB0102
:100D3000AC09AD09AE09AB09AB0A031DA52EAC0A7F
:100D4000031DA52EAD0A0319AE0A2A18942DAA1860
:100D5000DC2D2A19162E492E0008AC07031CB62ECE
:100D6000AD0A031DB62EAE0A031928148403000829
:100D7000AD07031CBE2EAE0A031928148403000815
:100D8000801F803AAE07031828142A1A9B2DAA1A2E
:100D9000E32D1D2E83128A1506297A080319B02F18
:100DA0008316A8002008031DD72E8312B02FA80297
:100DB000031CE12E7F30A807031CE02E8312B02F06
:100DC000EB2E8130A8020318E72E8312B02F031DEB
:100DD000EB2E8312B02F28088312A000A101A201DC
:100DE000A3018316A7017B08A600A6177C08A5000F
:100DF0007D08A4001930A8002308A4020318102FAE
:100E00000130A5020318102FA6020318102FA70205
:100E10000318102FA70AA60AA50A2308A407442F1F
:100E20002208A50203182B2F0130A60203182B2F2E
:100E3000A70203182B2FA70AA60A2208A507230832
:100E4000A407031C442FA50A031D442FA60A031D53
:100E5000442FA70A442F21088038A6020318412FE7
:100E60000130A7020318412FA70A21088038A607DE
:100E70002208A507031C1F2FA60A031D1F2FA70A60
:100E80001F2F831223148316A80B472F542F0310F0
:100E9000A40DA50DA60DA70D03108312A30DA20D81
:100EA000A10D8316A90DFC2E291C5E2F03108312A1
:100EB000A10CA20CA30C8316A90C632F8312A00310
:100EC0000319B02F8316A91B8C2F0310A40DA50D99
:100ED000A60DA70D2308A4020318782F0130A50240
:100EE0000318782FA6020318782FA702031CA32F3C
:100EF0002208A5020318832F0130A6020318832FAE
:100F0000A702031CA32F21088038A60203188C2FE8
:100F10000130A702031CA32F8312A30A0319922FE7
:100F20008316A32FA20A0319972F8316A32FA10AB2
:100F300003199C2F8316A32FA00A0319B02FA10C0D
:100F4000A20CA30C83167B08A8002108A806A81FE2
:100F5000AD2F8312A117B42F83168312A113B42FC0
:100F6000A001A101A201A3018A1520298E30A000B1
:100F70007A08A0027B08A2007C08A100A217A008A2
:100F80000319CD2F0310A208031DC92FA1080319AF
:100F9000CD2FA20CA10CA00BC22FFB1FD42FA10997
:0C0FA000A209A10A0319A20A8A152B2934
:101000009F180028FB011E08FA0074087A02031DCD
:101010000C28FB0803197928FC017C081F3C031CE1
:1010200077287C081F398316A0000F39A100201EE5
:10103000242821088A11831243208A15A1007F3CAD
:10104000A1002D282D28831621088A118312432000
:101050008A15A1007F302107A1008316A101831208
:1010600021088316A0002108A3002008A200A501E2
:101070007408A4001030A6008312A001A3018316F7
:10108000A30CA20C031C4E2824088312A0070318EB
:10109000A30A831625088312A30783168312A30CC1
:1010A000A00CA20CA10C8316A60B402883122208C8
:1010B0008316A100831221088316A0002108831241
:1010C000A301A200220DFD00230DFE00FD0DFE0D6B
:1010D000FC30FD0503107C0D2D3E84008313840A33
:1010E0007E08800084037D088000FC0A0D287A08B1
:1010F000F4009F148A157329840183131F3083051C
:1011000083169B1140309900A630980090308312CE
:1011100098007510F801F70103171F109F101F1199
:101120009F1103131F13003003179E0099019A01AA
:1011300083169E0183129B0103138D128A11892944
:101140008A15F510071EF514F511851DF5152C08E7
:10115000FC3E03184529043E7529F51CB1280130D1
:10116000AC00452975118A11D02A8A1583160C14F2
:10117000831287150230AC004529F5183229751104
:10118000871F7515751DC728F109F10ACA288A112C
:10119000A2248A15FB017608FA008A11A62C8A156A
:1011A000CD30FD00CC30FC002830FB008330FA004D
:1011B00023088316A300831222088316A200831239
:1011C00021088316A100831220088316A0008A112B
:1011D0008312C42C8A152008FA002108FB0022087B
:1011E000FC002308FD00831023088316A3007C085D
:1011F000A2007B08A1007A08A000A701A601483040
:10120000A5008730A4008A118312652D8A15FD017F
:101210007C30FC001230FB009130FA00230883166A
:10122000A300831222088316A200831221088316CA
:10123000A100831220088316A0008A118312CD2EEC
:101240008A152308FD002208FC002108FB00200865
:10125000FA008A11B62F8A152208F3002108F2003D
:101260000330AC004529F208031D4129F308031D92
:10127000412987118A11A2248A1583160C10831222
:10128000AC01F51C45290130AC00751C73297510A3
:10129000710879071F39F90072087304031954297A
:1012A00072080319F303F2030310790D2D3E840035
:1012B0008313840A0008FB0084030008FA007B08FB
:1012C000A2007A08A100A20CA10CA20CA10CA20CF5
:1012D00021089500A20C220C3039A0001708CF3944
:1012E000200497000028A12863000A148A100A111C
:0A12F0008207AD28B228BD2833297B
:02400E00C23FAF
:00000001FF
;PIC16F690
;CRC=5E6F  CREATED="26-Apr-25 11:39"
