:1000000002308A00BB2A0000FF00030E8301A50016
:100010007F08A4000A08AB008A01A40E0408A60009
:100020002008A7002108A8002208A9002308AA0088
:10003000831383128C308400001F20280C1B3D2862
:100040008C308400801C26288C183F288D3084003A
:10005000801F2C288D1B4128260884002708A0001B
:100060002808A1002908A2002A08A3002B088A005A
:10007000250E8300FF0E7F0E09008A116A298A115E
:100080000E298A1164290A108A100A118207003485
:100090001934303447345A34693474347C347F34FE
:1000A0007C34743469345A344734303419340A1087
:1000B0008A100A115E3E03188A0A82002034A13495
:1000C000C134013480341034D134013444348334A5
:1000D000E23401343A344A34F33401340034BD3468
:1000E000043402348C34DB3416340234EC34A5345A
:1000F0002934023414341C343D340234D834E93405
:1001000051340234CC340B34663402342C34313460
:100110007C340234EC34A3348D340234B0341634DD
:100120009F340234A4349334B63402343034683407
:10013000CF340234C0343C34E8340234E834683418
:1001400002340334D83440341D34033464347034FE
:1001500039340334BC344B3456340334B0347E3435
:1001600074340334383409349434033490343F34D1
:10017000B4340334B0342134D53403343434073444
:10018000F8340334883498341B340434783481349C
:10019000403404340034C2346634043420345A34D5
:1001A0008E340434D8344934B73404342834913488
:1001B000E1340434E034DB340D3405345834AA34EB
:1001C000553405345034CC3469340534D834FB34D8
:1001D00085340534F834A434B7340534A834A53450
:1001E000EA340534D034763401340634C034A934CA
:1001F0001F3406344034B134563406342034BC3411
:100200008F34063480343C34A934063480343A3494
:100210001E34333480342D34043439348316231D92
:1002200020297A08F6027B08031C7B0FF7027C0862
:10023000031C7C0FF8027D08031C7D0FF9022E2998
:100240007A08F6077B0803187B0FF7077C0803186A
:100250007C0FF8077D0803187D0FF907BC01BB016F
:10026000BA01790CB900B90CB90C1F30B9053908BD
:100270001F39A2000310220D8312323E8400831323
:10028000840A00088316B70084030008B600370804
:100290008312A200831636088312A100A20CA10CBF
:1002A000A20CA10CA20C21089500A20C220C303942
:1002B000A0001708CF392004970083162314831257
:1002C0008C108C108A112C288316A31683128D1380
:1002D0008A112C288316231783120C130C138A11EE
:1002E0002C288316A312F030831297050030A1004A
:1002F000053892003F30831692000530831290003B
:1003000083168D170C17C03083128B042F30831681
:100310008500F0308600D73087001F169F161F1308
:1003200083129F131F1403171F109F101F159F1177
:1003300003131F13003003179E0028300313A1007E
:100340001F08C33921049F009F140130F300F201FC
:100350007208003C8316AA00AB017308031C730FDC
:10036000AB020130AC000030031C0130AC02AD0127
:100370000030031C0130AD022E302A07F4002B0898
:10038000F5000318F50AA201F901F801F701F601D9
:100390000230FD009F30FC001630FB00B030FA0048
:1003A000FF30FE002316831287118A11E52A070801
:1003B000FF3A0739A000200D8316AA00AA0DAA0D46
:1003C000F830AA052A08A40083120508FF3A073965
:1003D0008316AA002A08A4078312080083162B108C
:1003E0008C182B142B188C10AC012C081F3C031CF0
:1003F000532A2C081F39AF000F39B0002F1E092ACD
:10040000300883124320A1007F3CA100102A102A4B
:100410008316300883124320A1007F302107A100FA
:100420008316B001831221088316AF003008B20092
:100430002F08B100B4017E08B3001030B50083125C
:10044000A001A3018316B20CB10C031C312A33089E
:100450008312A0070318A30A831634088312A30784
:1004600083168312A30CA00CA20CA10C8316B50B4F
:10047000232A831222088316B000831221088316D0
:10048000AF003008AD00AE0103102C0D8312323ED8
:1004900084008313840A83162E08800084032D08A9
:1004A0008000AC0AF5292B188C14831208008316DF
:1004B00023128312861A5F2A831623168312D721EA
:1004C000831624082B3C0318672A0C30A400240D43
:1004D0008312A000A00DFC30A00520088316AA00FE
:1004E0000330AA072A0883125720A3008316AA0301
:1004F0002A0883125720A2008316AA032A0883120F
:100500005720A10083162A0383125720A000230836
:10051000FD002208FC002108FB002008FA008316D9
:10052000A3199D2A831287120C3097009C019D010C
:100530000130831603179D0003130C1383128A11D5
:100540001B2BF0309705871283160C1783120800B7
:100550009F18A82A1E088316AA007E082A02AB004C
:100560002B08033C0318B92A2A08FE008312EE2147
:1005700083168312080003081F39830083169B1516
:100580000830990002309A00A6309800903083120B
:1005900098008316A2012310A601A5018312031758
:1005A0001F109F101F119F1103131F1300300317FB
:1005B0009E0099019A0183169E0183129B010313E9
:1005C0008D128313AC01AD017129D7218316A701C8
:1005D000A801A3108312071AF02A8316A31483120A
:1005E0008316A31183128519F82A8316A315831283
:1005F00083162408293C0318012B2910A31C291455
:10060000042B2910A31829142808FC3E03184D2B8D
:10061000043E83126B2B8316291C102B0130A8007B
:100620004D2B8316231183129F149F18152B1E0820
:10063000FE00EE21572A83168C1483128715023090
:100640008316A8004D2B83162918392B23118312EA
:10065000871B2D2B83162315831283162319332B07
:100660008312A12283160530A100B930A000033007
:10067000A8004D2B8316A008031D472BA108031DBE
:10068000472B83128711A12283168C10A801291CE5
:100690004B2B0130A8004D2B8316231C582B200810
:1006A00021040319572B20080319A103A0032310C9
:1006B000A70803195D2BA703632BFF30A700831244
:1006C000A8229F148316231F692B8312A822831646
:1006D0002313E92A63000A148A140A1182070B2BD8
:0606E000112B232B3A2B25
:02400E00C23FAF
:00000001FF
;PIC16F690
;CRC=0CF8  CREATED="13-Jun-26 12:29"
