:1000000002308A008A2A0000FF00030E8301A50047
:100010007F08A4000A08AB008A01A40E0408A60009
:100020002008A7002108A8002208A9002308AA0088
:10003000831383128C308400001F20280C1B3D2862
:100040008C308400801C26288C183F288D3084003A
:10005000801F2C288D1B4128260884002708A0001B
:100060002808A1002908A2002A08A3002B088A005A
:10007000250E8300FF0E7F0E09008A1176298A1152
:100080001E298A1172290A108A100A1182077F34E8
:100090009834B034C634D934E934F434FC34FE3402
:1000A000FC34F434E934D934C634B03498347F3471
:1000B00066344E343834253415340A34023400346E
:1000C00002340A341534253438344E3466340A1078
:1000D0008A100A116E3E03188A0A82002034A13465
:1000E000C134013480341034D13401344434833485
:1000F000E23401343A344A34F33401340034BD3448
:10010000043402348C34DB3416340234EC34A53439
:100110002934023414341C343D340234D834E934E4
:1001200051340234CC340B34663402342C34313440
:100130007C340234EC34A3348D340234B0341634BD
:100140009F340234A4349334B634023430346834E7
:10015000CF340234C0343C34E8340234E8346834F8
:1001600002340334D83440341D34033464347034DE
:1001700039340334BC344B3456340334B0347E3415
:1001800074340334383409349434033490343F34B1
:10019000B4340334B0342134D53403343434073424
:1001A000F8340334883498341B340434783481347C
:1001B000403404340034C2346634043420345A34B5
:1001C0008E340434D8344934B73404342834913468
:1001D000E1340434E034DB340D3405345834AA34CB
:1001E000553405345034CC3469340534D834FB34B8
:1001F00085340534F834A434B7340534A834A53430
:10020000EA340534D034763401340634C034A934A9
:100210001F3406344034B134563406342034BC34F0
:100220008F34063480343C34A934063480343A3474
:100230001E34333480342D34043439347E1D2F2958
:100240007608F2027708031C770FF3027808031C84
:10025000780FF4027908031C790FF5023D2976081E
:10026000F20777080318770FF30778080318780F59
:10027000F40779080318790FF5078316B801B70159
:10028000B601750CB500B50CB50C1F30B5053508B9
:100290001F39FD0003107D0D8312323E840083134D
:1002A000840A00088316B30084030008B2003308F0
:1002B0008312A200831632088312A100A20CA10CA3
:1002C000A20CA10CA20C21089500A20C220C303922
:1002D000A0001708CF39200497007E148C108C10D2
:1002E0008A112C28FE168D138A112C287E170C13C8
:1002F0000C138A112C28FE12F03097050030A10053
:10030000053892003F30831692008D170C17C030CD
:1003100083128B042F3083168500F0308600D7308F
:1003200087001F169F161F1383129F131F14031796
:100330001F109F101F159F1103131F130030031769
:100340009E0028300313A1001F08C33921049F0019
:100350009F14FD01F501F401F301F2010230F900EF
:100360009F30F8001630F700B030F600FF30FC0088
:100370007E1687118A11B22A0708FF3A0739A000B2
:10038000200D8316A600A60DA60DF830A60526089A
:10039000A00083120508FF3A07398316A600260835
:1003A000A00783120800831627108C18271427181B
:1003B0008C10A80128081F3C031C272A28081F3975
:1003C00083124320A100A1008316AC0183122108EF
:1003D0008316AB002C08AE002B08AD00B0017C08E2
:1003E000AF001030B1008312A001A3018316AE0C40
:1003F000AD0C031C052A2F088312A0070318A30ABB
:10040000831630088312A30783168312A30CA00C53
:10041000A20CA10C8316B10BF729831222088316B4
:10042000AC00831221088316AB002C08A900AA0196
:100430000310280D8312323E84008313840A83162E
:100440002A088000840329088000A80ADA292718CE
:100450008C14831208007E12861E7E16BC21831621
:1004600020082B3C0318362A0C30A000200D8312E4
:10047000A000A00DFC30A00520088316A6000330C4
:10048000A607260883126720A3008316A603260862
:1004900083126720A2008316A60326088312672012
:1004A000A1008316260383126720A0002308F90009
:1004B0002208F8002108F7002008F600FE196B2A30
:1004C00087120C3097009C019D01013083160317A1
:1004D0009D008312031383160C1383128A11DE2AE4
:1004E000F0309705871283160C17831208009F18A7
:1004F000772A1E088316A6007C082602A700270874
:10050000033C0318882A2608FC008312D321831693
:100510008312080003081F39830083169B114030A3
:100520009900A6309800903083129800FD017E104B
:100530008316A201A101831203171F109F101F1120
:100540009F1103131F13003003179E0099019A0196
:1005500083169E0183129B0103138D128313AC013A
:10056000AD017B29BC218316A301A401FE108312D7
:10057000071EFE14FE11851DFE1583162008293C5A
:100580000318C62A2510FE1C2514C92A2510FE189A
:1005900025142408FC3E03180A2B043E8312282B42
:1005A0008316251CD52A0130A4000A2B7E119F1426
:1005B0009F18D82A1E08FC00D3212B2A83168C14DE
:1005C0008312871502308316A4000A2B8316251880
:1005D000F62A7E118312871F7E157E1D702205303C
:1005E000FB00B930FA0003308316A4000A2BFA0886
:1005F000031D032BFB08031D032B87117022831699
:100600008C10A40183128316251C082B0130A40032
:100610000A2B83167E1C152B7A087B040319142BD6
:100620007A080319FB03FA037E10A30803191A2B97
:10063000A303202BFF30A300831277229F1483167D
:100640007E1F262B831277227E138316B62A630021
:100650000A148A140A118207D02AD62AE62AF72A0F
:02400E00C23FAF
:00000001FF
;PIC16F690
;CRC=163D  CREATED="14-Jun-26 09:10"
