:1000000002308A00742A0000FF00030E8301A5005D
:100010007F08A4000A08AB008A01A40E0408A60009
:100020002008A7002108A8002208A9002308AA0088
:10003000831383128C308400001F20280C1B3D2862
:100040008C308400001C26280C183F288D3084003A
:10005000801F2C288D1B4128260884002708A0001B
:100060002808A1002908A2002A08A3002B088A005A
:10007000250E8300FF0E7F0E09008A114E298A117A
:1000800012298A114A290A108A100A11820700349B
:100090001934303447345A34693474347C347F34FE
:1000A0007C34743469345A344734303419340A1087
:1000B0008A100A1182078E340434673404343E34C3
:1000C00004341A340434F6340334D4340334B234EC
:1000D00003349234033472340334553403343834E3
:1000E0000334223403340D340334F2340234D8346C
:1000F0000234C0340234A8340234913402347B34E4
:10010000023465340234503402343C34023428342E
:1001100002341634023404340234F2340134E1344B
:100120000134D1340134C1340134B2340134A33444
:100130000134953401347F3401347A34013472341B
:100140000134663401345A340134AA3402349C3404
:100150000234863402347034023466340234A034FB
:1001600000348F3400340A108A100A11BA3E031882
:100170008A0A8200453401344F3401345934013441
:10018000643401346F3401347B34013488340134F5
:1001900096340134A4340134B2340134C23401340D
:1001A000D2340134E2340134F434013405340234FD
:1001B000183402342B3402343F34023453340234C2
:1001C000683402347E34023494340234AB34023462
:1001D000C2340234DB340234F33402340D340334D9
:1001E00027340334423403345D3403347934033424
:1001F00095340334B3340334D0340334EF3403344C
:100200000E3404342E3404342734023438340234A7
:10021000493402345A3402346B34023424340934FD
:1002200032340A34101075088F0074088E001014D0
:100230007B1D1F2976087A021F39FA0023297608C8
:100240007A071F39FA0003107A0D323E84008313B7
:10025000840A00088316AF0084030008AE002F084C
:100260008312A20083162E088312A100A20CA10CF7
:10027000A20CA10CA20C21089500A20C220C303972
:10028000A0001708CF39200497007B140C100C1025
:100290008A112C28FB168D138A112C287B170C131E
:1002A0000C138A112C28FB12F03097050030A100A6
:1002B000053892003F30831692000530831290007B
:1002C00083168D170C17C03083128B042F308316C2
:1002D0008500F0308600D73087001F169F161F1349
:1002E00083129F131F1403171F109F101F159F11B8
:1002F00003131F13003003179E0028300313A100BF
:100300001F08C33921049F009F14FA01FF30F90030
:100310007B1687118A119C2A0708FF3A0739A0002B
:10032000200D8316A300A30DA30DF830A305230809
:10033000FC0083120508FF3A07398316A30023083F
:10034000FC07831208008316A40124081F3C031C29
:10035000032A24081F39A7000F39A800271EB9292E
:10036000280883124320A1007F3CA100C029C02996
:100370008316280883124320A1007F302107A100A3
:100380008316A801831221088316A7002808AA0053
:100390002708A900AC017908AB001030AD0083122A
:1003A000A001A3018316AA0CA90C031CE1292B08A8
:1003B0008312A0070318A30A83162C088312A3072D
:1003C00083168312A30CA00CA20CA10C8316AD0BF8
:1003D000D329831222088316A800831221088316CA
:1003E000A7002808A500A6010310240D8312323EA1
:1003F00084008313840A831626088000840325085A
:100400008000A40AA529831208007B12861E7B1691
:100410008C217C082B3C03180F2A0C30FC007C0834
:10042000243C031C162A0130F6001F2A7C08293CB4
:10043000031C1D2A0230F6001F2A0430F6000310A8
:100440007C0D8316A300230A83125720A300831672
:10045000230883125720F2002308F3007208003C9F
:100460008316A300A4017308031C730FA4020130B8
:10047000A5000030031C0130A502A6010030031CBA
:100480000130A6022E302307F4002408F5000318DB
:10049000F50AFB19562A831287120C3097009C012B
:1004A0009D010130831603179D0003130C13831263
:1004B0008A11CA2AF0309705871283160C17831207
:1004C00008009F18612A1E088316A30079082302DA
:1004D000A4002408033C0318722A2308F90083129D
:1004E000A32183168312080003081F398300831693
:1004F0009B150830990002309A00A6309800903081
:1005000083129800FA017B10FE01FD0103171F10F2
:100510009F101F119F1103131F13003003179E001C
:1005200099019A0183169E0183129B0103138D1278
:100530008313AC01AD0153298C218316A001A101C5
:10054000FB108312071EFB14FB11851DFB157C0895
:10055000293C0318B12A83162210FB1C2214B52A49
:10056000831283162210FB1822142108FC3E031864
:10057000012B043E83121F2B8316221CC12A01303B
:10058000A100012B7B119F149F18C42A1E08F9009B
:10059000A321052A83160C148312871502308316B3
:1005A000A100012B83162218ED2A7B118312871FCD
:1005B0007B157B1D5A2203107C0D8316A300230A92
:1005C0008312B320A300831623088312B320F700FD
:1005D0002308F80003308316A100012BF708031D40
:1005E000FA2AF808031DFA2A87115A2283160C10DA
:1005F000A10183128316221CFF2A0130A100012BC6
:1006000083167B1C0C2B7708780403190B2B7708B7
:100610000319F803F7037B10A0080319112BA0039B
:10062000172BFF30A000831261229F1483167B1FBB
:100630001D2B831261227B138316A02A63000A14E8
:0E0640008A140A118207BC2AC22AD22AEE2A84
:02400E00C23FAF
:00000001FF
;PIC16F690
;CRC=48D3  CREATED="16-May-26 14:30"
